:020000020000FC
:02000000C7C077
:02000C0004C02E
:1000100071C05BC0ACC0FFB67460FFBE1895A895F8
:1000200072FF23C07B7FEE2019F0EA94F1F4DEC06A
:10003000DA9409F4726017E0A5D107FF04C070FDDF
:1000400072607E7F07C070FD05C082D18AD111F435
:1000500093D1736071FF09C0042D003430F4DD24A6
:100060007D7F072F017000631BD02220C1F2EE209C
:1000700011F005E1E02ECF93DF93C12DC056DD27AF
:100080000881F8942A941394CFE11C227894DF918C
:10009000CF9108950F93A895042D0034E0F70F91A8
:1000A000EE2021F00F9305E1E02E0F91CF93DF9327
:1000B000DFB7F894C42DC30DDFBFCF73C05ADD275F
:1000C00008834394DF91CF910895FFB64F934EEC90
:1000D000742EEF93FF93E32DE05AFF274081FF91A9
:1000E000EF914CB94A9433944FE334226A940AF066
:1000F00046C04BC0FFB64F934EEC742E4CB15C998A
:1001000038C057FC26C056FC08C0473029F445E0EB
:1001100049B9539A40E4542A38C0642E40E2421947
:100120000AF44FE7662012F4442D40684CB9461596
:1001300008F4642E462D4F7739F040EC542A6A9427
:1001400022F55798559A21C04FEB5422569A5E9A41
:100150001CC0EF93FF93E22DE10DEF71E056FF27F6
:100160004083FF91EF9123946A947AF40CC0FFB618
:100170004F9353984FE849B94FEB54227724559841
:100180005698579A4CB14FE754224F91FFBE18959D
:100190000FED0DBF00E808B9A8950FE001BD929AD8
:1001A0008A9A939A8B9AAC9AA49AAD9AA59AB89A7D
:1001B000B99ABA9AA89AA99AAA9AAB9A949A959A2D
:1001C000969A979A0FE809B900E90AB933244424AA
:1001D00011242224552466247724772705E1D02E84
:1001E00005E003BF22E028BF29BF78940FED0DBFC3
:1001F000EE2415DF0B3109F0FBCF05E1E02E0FDF18
:10020000093439F0043499F0023521F1073581F7CA
:1002100045C09ED0A6D031F4AFD00BE13BDF09E45E
:1002200039DFE6CF0BE136DF09E634DFE1CF00E06E
:1002300016E0C7D00CEE17E0C4D093D031F40BE138
:1002400029DF04E427DF2FEF14C00BE123DF04E6EE
:1002500021DFCECF51D0E3DE0213CACF68D000E257
:1002600017E0AFD07ED081F40BE114DF02E512DF9E
:1002700051D0E0E0F2E010E085D0201B0BDF319799
:10028000D1F7022F07DFB4CF0BE104DF02E702DF73
:1002900041D000E0FFDE022FFDDEAACF2DD047D0F7
:1002A00000E317E08ED05DD079F7EFEFF1E0B7DE35
:1002B000201B10E086D03197D1F7B1DE201B102F24
:1002C000AEDE02137E7F021391CF012F10E079D0B2
:1002D00048D041F40BE1DEDE07E5DCDE1BD0022F67
:1002E000D9DE86CF0BE1D6DE07E7D4DE13D000E0FF
:1002F000D1DE022FCFDE7CCF2FEF91DE201BA02F8F
:100300008EDE201BB02F8BDE201BC02F88DE201B33
:10031000D02F08950A2F2FEF201BBCDE0B2F201BA0
:10032000B9DE0C2F201BB6DE0D2F201BB3CE01E053
:1003300012E047D00A2F13E044D00B2F14E041D035
:100340000C2F15E03ED00D2F0F70006E16E039C057
:100350000EE016E065D000E00A95F1F70AE016E03D
:100360005FC0E0E0F0E017E00DD007FF02C031977A
:10037000D1F7007C0034089501E011E022D00FEEA7
:1003800017E01FC018BB1FE215BB000000000000F3
:100390000000000000000000000014EF12BB00008D
:1003A000000000000000000000000000000003B397
:1003B00010B301270F7001271CEF12BB1FE315BB01
:1003C000089518BB102F1F70106215BB1FE314BBDC
:1003D000102F107F1C6012BB1CEF11BB000000002F
:1003E00000000000000000000000000092980000E3
:1003F0000000000000000000000000000000929AD1
:1004000000000000000000000000000000000000EC
:1004100012BB1CE011BB1FE315BB10E314BB089516
:1004200018BB102F1F70106115BB1FE314BB102FDA
:10043000107F1C6012BB1CEF11BB0000000000000D
:100440000000000000000000000092980000000082
:10045000000000000000000000000000929A000070
:10046000000000000000000000000000000012BBBF
:0E0470001CE011BB1FE315BB10E314BB089585
:0620000006410742B2ACEC
:00000001FF
